{
  "_format": "hh-sol-artifact-1",
  "contractName": "Lottery",
  "sourceName": "contracts/Lottery.sol",
  "abi": [
    {
      "inputs": [],
      "stateMutability": "nonpayable",
      "type": "constructor"
    },
    {
      "inputs": [
        {
          "internalType": "address",
          "name": "sender",
          "type": "address"
        },
        {
          "internalType": "uint256",
          "name": "tokenId",
          "type": "uint256"
        },
        {
          "internalType": "address",
          "name": "owner",
          "type": "address"
        }
      ],
      "name": "ERC721IncorrectOwner",
      "type": "error"
    },
    {
      "inputs": [
        {
          "internalType": "address",
          "name": "operator",
          "type": "address"
        },
        {
          "internalType": "uint256",
          "name": "tokenId",
          "type": "uint256"
        }
      ],
      "name": "ERC721InsufficientApproval",
      "type": "error"
    },
    {
      "inputs": [
        {
          "internalType": "address",
          "name": "approver",
          "type": "address"
        }
      ],
      "name": "ERC721InvalidApprover",
      "type": "error"
    },
    {
      "inputs": [
        {
          "internalType": "address",
          "name": "operator",
          "type": "address"
        }
      ],
      "name": "ERC721InvalidOperator",
      "type": "error"
    },
    {
      "inputs": [
        {
          "internalType": "address",
          "name": "owner",
          "type": "address"
        }
      ],
      "name": "ERC721InvalidOwner",
      "type": "error"
    },
    {
      "inputs": [
        {
          "internalType": "address",
          "name": "receiver",
          "type": "address"
        }
      ],
      "name": "ERC721InvalidReceiver",
      "type": "error"
    },
    {
      "inputs": [
        {
          "internalType": "address",
          "name": "sender",
          "type": "address"
        }
      ],
      "name": "ERC721InvalidSender",
      "type": "error"
    },
    {
      "inputs": [
        {
          "internalType": "uint256",
          "name": "tokenId",
          "type": "uint256"
        }
      ],
      "name": "ERC721NonexistentToken",
      "type": "error"
    },
    {
      "inputs": [
        {
          "internalType": "address",
          "name": "owner",
          "type": "address"
        }
      ],
      "name": "OwnableInvalidOwner",
      "type": "error"
    },
    {
      "inputs": [
        {
          "internalType": "address",
          "name": "account",
          "type": "address"
        }
      ],
      "name": "OwnableUnauthorizedAccount",
      "type": "error"
    },
    {
      "anonymous": false,
      "inputs": [
        {
          "indexed": true,
          "internalType": "address",
          "name": "owner",
          "type": "address"
        },
        {
          "indexed": true,
          "internalType": "address",
          "name": "approved",
          "type": "address"
        },
        {
          "indexed": true,
          "internalType": "uint256",
          "name": "tokenId",
          "type": "uint256"
        }
      ],
      "name": "Approval",
      "type": "event"
    },
    {
      "anonymous": false,
      "inputs": [
        {
          "indexed": true,
          "internalType": "address",
          "name": "owner",
          "type": "address"
        },
        {
          "indexed": true,
          "internalType": "address",
          "name": "operator",
          "type": "address"
        },
        {
          "indexed": false,
          "internalType": "bool",
          "name": "approved",
          "type": "bool"
        }
      ],
      "name": "ApprovalForAll",
      "type": "event"
    },
    {
      "anonymous": false,
      "inputs": [
        {
          "indexed": true,
          "internalType": "uint256",
          "name": "goldWinner",
          "type": "uint256"
        },
        {
          "indexed": true,
          "internalType": "uint256",
          "name": "silverWinner",
          "type": "uint256"
        },
        {
          "indexed": true,
          "internalType": "uint256",
          "name": "bronzeWinner",
          "type": "uint256"
        }
      ],
      "name": "LotteryDrawn",
      "type": "event"
    },
    {
      "anonymous": false,
      "inputs": [
        {
          "indexed": true,
          "internalType": "address",
          "name": "previousOwner",
          "type": "address"
        },
        {
          "indexed": true,
          "internalType": "address",
          "name": "newOwner",
          "type": "address"
        }
      ],
      "name": "OwnershipTransferred",
      "type": "event"
    },
    {
      "anonymous": false,
      "inputs": [
        {
          "indexed": true,
          "internalType": "address",
          "name": "buyer",
          "type": "address"
        },
        {
          "indexed": true,
          "internalType": "uint256",
          "name": "ticketId",
          "type": "uint256"
        }
      ],
      "name": "TicketPurchased",
      "type": "event"
    },
    {
      "anonymous": false,
      "inputs": [
        {
          "indexed": true,
          "internalType": "address",
          "name": "from",
          "type": "address"
        },
        {
          "indexed": true,
          "internalType": "address",
          "name": "to",
          "type": "address"
        },
        {
          "indexed": true,
          "internalType": "uint256",
          "name": "tokenId",
          "type": "uint256"
        }
      ],
      "name": "Transfer",
      "type": "event"
    },
    {
      "inputs": [],
      "name": "BRONZE_WINNER_PERCENTAGE",
      "outputs": [
        {
          "internalType": "uint256",
          "name": "",
          "type": "uint256"
        }
      ],
      "stateMutability": "view",
      "type": "function"
    },
    {
      "inputs": [],
      "name": "GOLD_WINNER_PERCENTAGE",
      "outputs": [
        {
          "internalType": "uint256",
          "name": "",
          "type": "uint256"
        }
      ],
      "stateMutability": "view",
      "type": "function"
    },
    {
      "inputs": [],
      "name": "SILVER_WINNER_PERCENTAGE",
      "outputs": [
        {
          "internalType": "uint256",
          "name": "",
          "type": "uint256"
        }
      ],
      "stateMutability": "view",
      "type": "function"
    },
    {
      "inputs": [],
      "name": "TICKET_PRICE",
      "outputs": [
        {
          "internalType": "uint256",
          "name": "",
          "type": "uint256"
        }
      ],
      "stateMutability": "view",
      "type": "function"
    },
    {
      "inputs": [],
      "name": "TOTAL_TICKETS",
      "outputs": [
        {
          "internalType": "uint256",
          "name": "",
          "type": "uint256"
        }
      ],
      "stateMutability": "view",
      "type": "function"
    },
    {
      "inputs": [
        {
          "internalType": "address",
          "name": "to",
          "type": "address"
        },
        {
          "internalType": "uint256",
          "name": "tokenId",
          "type": "uint256"
        }
      ],
      "name": "approve",
      "outputs": [],
      "stateMutability": "nonpayable",
      "type": "function"
    },
    {
      "inputs": [
        {
          "internalType": "address",
          "name": "owner",
          "type": "address"
        }
      ],
      "name": "balanceOf",
      "outputs": [
        {
          "internalType": "uint256",
          "name": "",
          "type": "uint256"
        }
      ],
      "stateMutability": "view",
      "type": "function"
    },
    {
      "inputs": [],
      "name": "bronzeWinner",
      "outputs": [
        {
          "internalType": "uint256",
          "name": "",
          "type": "uint256"
        }
      ],
      "stateMutability": "view",
      "type": "function"
    },
    {
      "inputs": [],
      "name": "buyTicket",
      "outputs": [],
      "stateMutability": "payable",
      "type": "function"
    },
    {
      "inputs": [
        {
          "internalType": "uint256",
          "name": "tokenId",
          "type": "uint256"
        }
      ],
      "name": "getApproved",
      "outputs": [
        {
          "internalType": "address",
          "name": "",
          "type": "address"
        }
      ],
      "stateMutability": "view",
      "type": "function"
    },
    {
      "inputs": [],
      "name": "goldWinner",
      "outputs": [
        {
          "internalType": "uint256",
          "name": "",
          "type": "uint256"
        }
      ],
      "stateMutability": "view",
      "type": "function"
    },
    {
      "inputs": [
        {
          "internalType": "address",
          "name": "owner",
          "type": "address"
        },
        {
          "internalType": "address",
          "name": "operator",
          "type": "address"
        }
      ],
      "name": "isApprovedForAll",
      "outputs": [
        {
          "internalType": "bool",
          "name": "",
          "type": "bool"
        }
      ],
      "stateMutability": "view",
      "type": "function"
    },
    {
      "inputs": [],
      "name": "lotteryState",
      "outputs": [
        {
          "internalType": "enum Lottery.LotteryState",
          "name": "",
          "type": "uint8"
        }
      ],
      "stateMutability": "view",
      "type": "function"
    },
    {
      "inputs": [],
      "name": "name",
      "outputs": [
        {
          "internalType": "string",
          "name": "",
          "type": "string"
        }
      ],
      "stateMutability": "view",
      "type": "function"
    },
    {
      "inputs": [],
      "name": "owner",
      "outputs": [
        {
          "internalType": "address",
          "name": "",
          "type": "address"
        }
      ],
      "stateMutability": "view",
      "type": "function"
    },
    {
      "inputs": [
        {
          "internalType": "uint256",
          "name": "tokenId",
          "type": "uint256"
        }
      ],
      "name": "ownerOf",
      "outputs": [
        {
          "internalType": "address",
          "name": "",
          "type": "address"
        }
      ],
      "stateMutability": "view",
      "type": "function"
    },
    {
      "inputs": [],
      "name": "randomResult",
      "outputs": [
        {
          "internalType": "uint256",
          "name": "",
          "type": "uint256"
        }
      ],
      "stateMutability": "view",
      "type": "function"
    },
    {
      "inputs": [
        {
          "internalType": "bytes32",
          "name": "requestId",
          "type": "bytes32"
        },
        {
          "internalType": "uint256",
          "name": "randomness",
          "type": "uint256"
        }
      ],
      "name": "rawFulfillRandomness",
      "outputs": [],
      "stateMutability": "nonpayable",
      "type": "function"
    },
    {
      "inputs": [],
      "name": "renounceOwnership",
      "outputs": [],
      "stateMutability": "nonpayable",
      "type": "function"
    },
    {
      "inputs": [],
      "name": "requestId",
      "outputs": [
        {
          "internalType": "bytes32",
          "name": "",
          "type": "bytes32"
        }
      ],
      "stateMutability": "view",
      "type": "function"
    },
    {
      "inputs": [
        {
          "internalType": "address",
          "name": "from",
          "type": "address"
        },
        {
          "internalType": "address",
          "name": "to",
          "type": "address"
        },
        {
          "internalType": "uint256",
          "name": "tokenId",
          "type": "uint256"
        }
      ],
      "name": "safeTransferFrom",
      "outputs": [],
      "stateMutability": "nonpayable",
      "type": "function"
    },
    {
      "inputs": [
        {
          "internalType": "address",
          "name": "from",
          "type": "address"
        },
        {
          "internalType": "address",
          "name": "to",
          "type": "address"
        },
        {
          "internalType": "uint256",
          "name": "tokenId",
          "type": "uint256"
        },
        {
          "internalType": "bytes",
          "name": "data",
          "type": "bytes"
        }
      ],
      "name": "safeTransferFrom",
      "outputs": [],
      "stateMutability": "nonpayable",
      "type": "function"
    },
    {
      "inputs": [
        {
          "internalType": "address",
          "name": "operator",
          "type": "address"
        },
        {
          "internalType": "bool",
          "name": "approved",
          "type": "bool"
        }
      ],
      "name": "setApprovalForAll",
      "outputs": [],
      "stateMutability": "nonpayable",
      "type": "function"
    },
    {
      "inputs": [],
      "name": "silverWinner",
      "outputs": [
        {
          "internalType": "uint256",
          "name": "",
          "type": "uint256"
        }
      ],
      "stateMutability": "view",
      "type": "function"
    },
    {
      "inputs": [
        {
          "internalType": "bytes4",
          "name": "interfaceId",
          "type": "bytes4"
        }
      ],
      "name": "supportsInterface",
      "outputs": [
        {
          "internalType": "bool",
          "name": "",
          "type": "bool"
        }
      ],
      "stateMutability": "view",
      "type": "function"
    },
    {
      "inputs": [],
      "name": "symbol",
      "outputs": [
        {
          "internalType": "string",
          "name": "",
          "type": "string"
        }
      ],
      "stateMutability": "view",
      "type": "function"
    },
    {
      "inputs": [],
      "name": "ticketCounter",
      "outputs": [
        {
          "internalType": "uint256",
          "name": "",
          "type": "uint256"
        }
      ],
      "stateMutability": "view",
      "type": "function"
    },
    {
      "inputs": [
        {
          "internalType": "uint256",
          "name": "",
          "type": "uint256"
        }
      ],
      "name": "ticketOwners",
      "outputs": [
        {
          "internalType": "address",
          "name": "",
          "type": "address"
        }
      ],
      "stateMutability": "view",
      "type": "function"
    },
    {
      "inputs": [
        {
          "internalType": "address",
          "name": "",
          "type": "address"
        }
      ],
      "name": "ticketsBought",
      "outputs": [
        {
          "internalType": "uint256",
          "name": "",
          "type": "uint256"
        }
      ],
      "stateMutability": "view",
      "type": "function"
    },
    {
      "inputs": [
        {
          "internalType": "uint256",
          "name": "tokenId",
          "type": "uint256"
        }
      ],
      "name": "tokenURI",
      "outputs": [
        {
          "internalType": "string",
          "name": "",
          "type": "string"
        }
      ],
      "stateMutability": "view",
      "type": "function"
    },
    {
      "inputs": [
        {
          "internalType": "address",
          "name": "from",
          "type": "address"
        },
        {
          "internalType": "address",
          "name": "to",
          "type": "address"
        },
        {
          "internalType": "uint256",
          "name": "tokenId",
          "type": "uint256"
        }
      ],
      "name": "transferFrom",
      "outputs": [],
      "stateMutability": "nonpayable",
      "type": "function"
    },
    {
      "inputs": [
        {
          "internalType": "address",
          "name": "newOwner",
          "type": "address"
        }
      ],
      "name": "transferOwnership",
      "outputs": [],
      "stateMutability": "nonpayable",
      "type": "function"
    },
    {
      "inputs": [],
      "name": "treasury",
      "outputs": [
        {
          "internalType": "address payable",
          "name": "",
          "type": "address"
        }
      ],
      "stateMutability": "view",
      "type": "function"
    },
    {
      "inputs": [
        {
          "internalType": "uint256",
          "name": "",
          "type": "uint256"
        }
      ],
      "name": "winners",
      "outputs": [
        {
          "internalType": "bool",
          "name": "",
          "type": "bool"
        }
      ],
      "stateMutability": "view",
      "type": "function"
    },
    {
      "inputs": [],
      "name": "withdraw",
      "outputs": [],
      "stateMutability": "nonpayable",
      "type": "function"
    },
    {
      "stateMutability": "payable",
      "type": "receive"
    }
  ],
  "bytecode": "0x60c06040527f474e34a077df58807dbe9c96d3c009b23b3c6d0cce433e59bbf5b34f823bc56c60001b60135567016345785d8a0000601455738103b0a8a00be2ddc778e6e7eaa21791cd364625601560006101000a81548173ffffffffffffffffffffffffffffffffffffffff021916908373ffffffffffffffffffffffffffffffffffffffff16021790555073779877a7b0d9e8603169ddbd7836e478b4624789601660006101000a81548173ffffffffffffffffffffffffffffffffffffffff021916908373ffffffffffffffffffffffffffffffffffffffff160217905550348015620000ee57600080fd5b50601560009054906101000a900473ffffffffffffffffffffffffffffffffffffffff16601660009054906101000a900473ffffffffffffffffffffffffffffffffffffffff16336040518060400160405280601a81526020017f44655377656570204e4654204c6f7474657279205469636b65740000000000008152506040518060400160405280600681526020017f44535745455000000000000000000000000000000000000000000000000000008152508160009081620001b3919062000680565b508060019081620001c5919062000680565b505050600073ffffffffffffffffffffffffffffffffffffffff168173ffffffffffffffffffffffffffffffffffffffff16036200023d5760006040517f1e4fbdf7000000000000000000000000000000000000000000000000000000008152600401620002349190620007ac565b60405180910390fd5b6200024e816200034060201b60201c565b508173ffffffffffffffffffffffffffffffffffffffff1660a08173ffffffffffffffffffffffffffffffffffffffff16815250508073ffffffffffffffffffffffffffffffffffffffff1660808173ffffffffffffffffffffffffffffffffffffffff1681525050505033600860006101000a81548173ffffffffffffffffffffffffffffffffffffffff021916908373ffffffffffffffffffffffffffffffffffffffff16021790555060006009819055506000600e60006101000a81548160ff021916908360028111156200032b576200032a620007c9565b5b02179055506000801b601281905550620007f8565b6000600660009054906101000a900473ffffffffffffffffffffffffffffffffffffffff16905081600660006101000a81548173ffffffffffffffffffffffffffffffffffffffff021916908373ffffffffffffffffffffffffffffffffffffffff1602179055508173ffffffffffffffffffffffffffffffffffffffff168173ffffffffffffffffffffffffffffffffffffffff167f8be0079c531659141344cd1fd0a4f28419497f9722a3daafe3b4186f6b6457e060405160405180910390a35050565b600081519050919050565b7f4e487b7100000000000000000000000000000000000000000000000000000000600052604160045260246000fd5b7f4e487b7100000000000000000000000000000000000000000000000000000000600052602260045260246000fd5b600060028204905060018216806200048857607f821691505b6020821081036200049e576200049d62000440565b5b50919050565b60008190508160005260206000209050919050565b60006020601f8301049050919050565b600082821b905092915050565b600060088302620005087fffffffffffffffffffffffffffffffffffffffffffffffffffffffffffffffff82620004c9565b620005148683620004c9565b95508019841693508086168417925050509392505050565b6000819050919050565b6000819050919050565b6000620005616200055b62000555846200052c565b62000536565b6200052c565b9050919050565b6000819050919050565b6200057d8362000540565b620005956200058c8262000568565b848454620004d6565b825550505050565b600090565b620005ac6200059d565b620005b981848462000572565b505050565b5b81811015620005e157620005d5600082620005a2565b600181019050620005bf565b5050565b601f8211156200063057620005fa81620004a4565b6200060584620004b9565b8101602085101562000615578190505b6200062d6200062485620004b9565b830182620005be565b50505b505050565b600082821c905092915050565b6000620006556000198460080262000635565b1980831691505092915050565b600062000670838362000642565b9150826002028217905092915050565b6200068b8262000406565b67ffffffffffffffff811115620006a757620006a662000411565b5b620006b382546200046f565b620006c0828285620005e5565b600060209050601f831160018114620006f85760008415620006e3578287015190505b620006ef858262000662565b8655506200075f565b601f1984166200070886620004a4565b60005b8281101562000732578489015182556001820191506020850194506020810190506200070b565b868310156200075257848901516200074e601f89168262000642565b8355505b6001600288020188555050505b505050505050565b600073ffffffffffffffffffffffffffffffffffffffff82169050919050565b6000620007948262000767565b9050919050565b620007a68162000787565b82525050565b6000602082019050620007c360008301846200079b565b92915050565b7f4e487b7100000000000000000000000000000000000000000000000000000000600052602160045260246000fd5b60805160a0516137cc6200082560003960008181610d0b0152611c2d01526000611bf101526137cc6000f3fe6080604052600436106102075760003560e01c806384bd326411610118578063afbd1782116100a0578063c89a08fe1161006f578063c89a08fe14610767578063e985e9c514610792578063eb2dbcf6146107cf578063edca914c1461080c578063f2fde38b146108165761020e565b8063afbd1782146106ab578063b88d4fde146106d6578063bd9c4ed6146106ff578063c87b56dd1461072a5761020e565b806394985ddd116100e757806394985ddd146105c657806395d89b41146105ef578063a22cb4651461061a578063a2fb117514610643578063a3898bb7146106805761020e565b806384bd3264146105085780638c4d59d0146105455780638da5cb5b146105705780638e29ec9e1461059b5761020e565b80633ccfd60b1161019b5780636352211e1161016a5780636352211e146104215780636939864b1461045e57806370a0823114610489578063715018a6146104c65780637c256494146104dd5761020e565b80633ccfd60b1461038b57806342619f66146103a257806342842e0e146103cd57806361d027b3146103f65761020e565b80630875d815116101d75780630875d815146102e3578063095ea7b31461030e5780631a95f15f1461033757806323b872dd146103625761020e565b80626d6cae1461021357806301ffc9a71461023e57806306fdde031461027b578063081812fc146102a65761020e565b3661020e57005b600080fd5b34801561021f57600080fd5b5061022861083f565b6040516102359190612882565b60405180910390f35b34801561024a57600080fd5b5061026560048036038101906102609190612909565b610845565b6040516102729190612951565b60405180910390f35b34801561028757600080fd5b50610290610927565b60405161029d91906129fc565b60405180910390f35b3480156102b257600080fd5b506102cd60048036038101906102c89190612a54565b6109b9565b6040516102da9190612ac2565b60405180910390f35b3480156102ef57600080fd5b506102f86109d5565b6040516103059190612aec565b60405180910390f35b34801561031a57600080fd5b5061033560048036038101906103309190612b33565b6109db565b005b34801561034357600080fd5b5061034c6109f1565b6040516103599190612aec565b60405180910390f35b34801561036e57600080fd5b5061038960048036038101906103849190612b73565b6109fd565b005b34801561039757600080fd5b506103a0610aff565b005b3480156103ae57600080fd5b506103b7610b78565b6040516103c49190612aec565b60405180910390f35b3480156103d957600080fd5b506103f460048036038101906103ef9190612b73565b610b7e565b005b34801561040257600080fd5b5061040b610b9e565b6040516104189190612be7565b60405180910390f35b34801561042d57600080fd5b5061044860048036038101906104439190612a54565b610bc4565b6040516104559190612ac2565b60405180910390f35b34801561046a57600080fd5b50610473610bd6565b6040516104809190612c79565b60405180910390f35b34801561049557600080fd5b506104b060048036038101906104ab9190612c94565b610be9565b6040516104bd9190612aec565b60405180910390f35b3480156104d257600080fd5b506104db610ca3565b005b3480156104e957600080fd5b506104f2610cb7565b6040516104ff9190612aec565b60405180910390f35b34801561051457600080fd5b5061052f600480360381019061052a9190612c94565b610cbc565b60405161053c9190612aec565b60405180910390f35b34801561055157600080fd5b5061055a610cd4565b6040516105679190612aec565b60405180910390f35b34801561057c57600080fd5b50610585610cda565b6040516105929190612ac2565b60405180910390f35b3480156105a757600080fd5b506105b0610d04565b6040516105bd9190612aec565b60405180910390f35b3480156105d257600080fd5b506105ed60048036038101906105e89190612ced565b610d09565b005b3480156105fb57600080fd5b50610604610da5565b60405161061191906129fc565b60405180910390f35b34801561062657600080fd5b50610641600480360381019061063c9190612d59565b610e37565b005b34801561064f57600080fd5b5061066a60048036038101906106659190612a54565b610e4d565b6040516106779190612951565b60405180910390f35b34801561068c57600080fd5b50610695610e6d565b6040516106a29190612aec565b60405180910390f35b3480156106b757600080fd5b506106c0610e73565b6040516106cd9190612aec565b60405180910390f35b3480156106e257600080fd5b506106fd60048036038101906106f89190612ece565b610e78565b005b34801561070b57600080fd5b50610714610e95565b6040516107219190612aec565b60405180910390f35b34801561073657600080fd5b50610751600480360381019061074c9190612a54565b610e9b565b60405161075e91906129fc565b60405180910390f35b34801561077357600080fd5b5061077c610f04565b6040516107899190612aec565b60405180910390f35b34801561079e57600080fd5b506107b960048036038101906107b49190612f51565b610f09565b6040516107c69190612951565b60405180910390f35b3480156107db57600080fd5b506107f660048036038101906107f19190612a54565b610f9d565b6040516108039190612ac2565b60405180910390f35b610814610fd0565b005b34801561082257600080fd5b5061083d60048036038101906108389190612c94565b611237565b005b60125481565b60007f80ac58cd000000000000000000000000000000000000000000000000000000007bffffffffffffffffffffffffffffffffffffffffffffffffffffffff1916827bffffffffffffffffffffffffffffffffffffffffffffffffffffffff1916148061091057507f5b5e139f000000000000000000000000000000000000000000000000000000007bffffffffffffffffffffffffffffffffffffffffffffffffffffffff1916827bffffffffffffffffffffffffffffffffffffffffffffffffffffffff1916145b80610920575061091f826112bd565b5b9050919050565b60606000805461093690612fc0565b80601f016020809104026020016040519081016040528092919081815260200182805461096290612fc0565b80156109af5780601f10610984576101008083540402835291602001916109af565b820191906000526020600020905b81548152906001019060200180831161099257829003601f168201915b5050505050905090565b60006109c482611327565b506109ce826113af565b9050919050565b600c5481565b6109ed82826109e86113ec565b6113f4565b5050565b67016345785d8a000081565b600073ffffffffffffffffffffffffffffffffffffffff168273ffffffffffffffffffffffffffffffffffffffff1603610a6f5760006040517f64a0ae92000000000000000000000000000000000000000000000000000000008152600401610a669190612ac2565b60405180910390fd5b6000610a838383610a7e6113ec565b611406565b90508373ffffffffffffffffffffffffffffffffffffffff168173ffffffffffffffffffffffffffffffffffffffff1614610af9578382826040517f64283d7b000000000000000000000000000000000000000000000000000000008152600401610af093929190612ff1565b60405180910390fd5b50505050565b610b07611620565b6000479050600860009054906101000a900473ffffffffffffffffffffffffffffffffffffffff1673ffffffffffffffffffffffffffffffffffffffff166108fc829081150290604051600060405180830381858888f19350505050158015610b74573d6000803e3d6000fd5b5050565b600a5481565b610b9983838360405180602001604052806000815250610e78565b505050565b600860009054906101000a900473ffffffffffffffffffffffffffffffffffffffff1681565b6000610bcf82611327565b9050919050565b600e60009054906101000a900460ff1681565b60008073ffffffffffffffffffffffffffffffffffffffff168273ffffffffffffffffffffffffffffffffffffffff1603610c5c5760006040517f89c62b64000000000000000000000000000000000000000000000000000000008152600401610c539190612ac2565b60405180910390fd5b600360008373ffffffffffffffffffffffffffffffffffffffff1673ffffffffffffffffffffffffffffffffffffffff168152602001908152602001600020549050919050565b610cab611620565b610cb560006116a7565b565b600581565b600f6020528060005260406000206000915090505481565b60095481565b6000600660009054906101000a900473ffffffffffffffffffffffffffffffffffffffff16905090565b600a81565b7f000000000000000000000000000000000000000000000000000000000000000073ffffffffffffffffffffffffffffffffffffffff163373ffffffffffffffffffffffffffffffffffffffff1614610d97576040517f08c379a0000000000000000000000000000000000000000000000000000000008152600401610d8e90613074565b60405180910390fd5b610da1828261176d565b5050565b606060018054610db490612fc0565b80601f0160208091040260200160405190810160405280929190818152602001828054610de090612fc0565b8015610e2d5780601f10610e0257610100808354040283529160200191610e2d565b820191906000526020600020905b815481529060010190602001808311610e1057829003601f168201915b5050505050905090565b610e49610e426113ec565b83836117c4565b5050565b60116020528060005260406000206000915054906101000a900460ff1681565b600d5481565b606481565b610e838484846109fd565b610e8f84848484611933565b50505050565b600b5481565b6060610ea682611327565b506000610eb1611aea565b90506000815111610ed15760405180602001604052806000815250610efc565b80610edb84611b01565b604051602001610eec9291906130d0565b6040516020818303038152906040525b915050919050565b601e81565b6000600560008473ffffffffffffffffffffffffffffffffffffffff1673ffffffffffffffffffffffffffffffffffffffff16815260200190815260200160002060008373ffffffffffffffffffffffffffffffffffffffff1673ffffffffffffffffffffffffffffffffffffffff16815260200190815260200160002060009054906101000a900460ff16905092915050565b60106020528060005260406000206000915054906101000a900473ffffffffffffffffffffffffffffffffffffffff1681565b60006002811115610fe457610fe3612c02565b5b600e60009054906101000a900460ff16600281111561100657611005612c02565b5b14611046576040517f08c379a000000000000000000000000000000000000000000000000000000000815260040161103d90613140565b60405180910390fd5b60646009541061108b576040517f08c379a0000000000000000000000000000000000000000000000000000000008152600401611082906131ac565b60405180910390fd5b67016345785d8a00003410156110d6576040517f08c379a00000000000000000000000000000000000000000000000000000000081526004016110cd90613218565b60405180910390fd5b600960008154809291906110e990613267565b9190505550600060095490506110ff3382611bcf565b600f60003373ffffffffffffffffffffffffffffffffffffffff1673ffffffffffffffffffffffffffffffffffffffff168152602001908152602001600020600081548092919061114f90613267565b9190505550336010600083815260200190815260200160002060006101000a81548173ffffffffffffffffffffffffffffffffffffffff021916908373ffffffffffffffffffffffffffffffffffffffff160217905550803373ffffffffffffffffffffffffffffffffffffffff167f0668f5b446eb814fe35b3206f43f14bd8567ba04ddaf7a3ee56516929ab22ccb60405160405180910390a3606460095403611234576001600e60006101000a81548160ff0219169083600281111561121a57611219612c02565b5b021790555061122d601354601454611bed565b6012819055505b50565b61123f611620565b600073ffffffffffffffffffffffffffffffffffffffff168173ffffffffffffffffffffffffffffffffffffffff16036112b15760006040517f1e4fbdf70000000000000000000000000000000000000000000000000000000081526004016112a89190612ac2565b60405180910390fd5b6112ba816116a7565b50565b60007f01ffc9a7000000000000000000000000000000000000000000000000000000007bffffffffffffffffffffffffffffffffffffffffffffffffffffffff1916827bffffffffffffffffffffffffffffffffffffffffffffffffffffffff1916149050919050565b60008061133383611d40565b9050600073ffffffffffffffffffffffffffffffffffffffff168173ffffffffffffffffffffffffffffffffffffffff16036113a657826040517f7e27328900000000000000000000000000000000000000000000000000000000815260040161139d9190612aec565b60405180910390fd5b80915050919050565b60006004600083815260200190815260200160002060009054906101000a900473ffffffffffffffffffffffffffffffffffffffff169050919050565b600033905090565b6114018383836001611d7d565b505050565b60008061141284611d40565b9050600073ffffffffffffffffffffffffffffffffffffffff168373ffffffffffffffffffffffffffffffffffffffff161461145457611453818486611f42565b5b600073ffffffffffffffffffffffffffffffffffffffff168173ffffffffffffffffffffffffffffffffffffffff16146114e557611496600085600080611d7d565b6001600360008373ffffffffffffffffffffffffffffffffffffffff1673ffffffffffffffffffffffffffffffffffffffff168152602001908152602001600020600082825403925050819055505b600073ffffffffffffffffffffffffffffffffffffffff168573ffffffffffffffffffffffffffffffffffffffff1614611568576001600360008773ffffffffffffffffffffffffffffffffffffffff1673ffffffffffffffffffffffffffffffffffffffff168152602001908152602001600020600082825401925050819055505b846002600086815260200190815260200160002060006101000a81548173ffffffffffffffffffffffffffffffffffffffff021916908373ffffffffffffffffffffffffffffffffffffffff160217905550838573ffffffffffffffffffffffffffffffffffffffff168273ffffffffffffffffffffffffffffffffffffffff167fddf252ad1be2c89b69c2b068fc378daa952ba7f163c4a11628f55a4df523b3ef60405160405180910390a4809150509392505050565b6116286113ec565b73ffffffffffffffffffffffffffffffffffffffff16611646610cda565b73ffffffffffffffffffffffffffffffffffffffff16146116a5576116696113ec565b6040517f118cdaa700000000000000000000000000000000000000000000000000000000815260040161169c9190612ac2565b60405180910390fd5b565b6000600660009054906101000a900473ffffffffffffffffffffffffffffffffffffffff16905081600660006101000a81548173ffffffffffffffffffffffffffffffffffffffff021916908373ffffffffffffffffffffffffffffffffffffffff1602179055508173ffffffffffffffffffffffffffffffffffffffff168173ffffffffffffffffffffffffffffffffffffffff167f8be0079c531659141344cd1fd0a4f28419497f9722a3daafe3b4186f6b6457e060405160405180910390a35050565b60125482146117b1576040517f08c379a00000000000000000000000000000000000000000000000000000000081526004016117a8906132fb565b60405180910390fd5b80600a819055506117c0612006565b5050565b600073ffffffffffffffffffffffffffffffffffffffff168273ffffffffffffffffffffffffffffffffffffffff160361183557816040517f5b08ba1800000000000000000000000000000000000000000000000000000000815260040161182c9190612ac2565b60405180910390fd5b80600560008573ffffffffffffffffffffffffffffffffffffffff1673ffffffffffffffffffffffffffffffffffffffff16815260200190815260200160002060008473ffffffffffffffffffffffffffffffffffffffff1673ffffffffffffffffffffffffffffffffffffffff16815260200190815260200160002060006101000a81548160ff0219169083151502179055508173ffffffffffffffffffffffffffffffffffffffff168373ffffffffffffffffffffffffffffffffffffffff167f17307eab39ab6107e8899845ad3d59bd9653f200f220920489ca2b5937696c31836040516119269190612951565b60405180910390a3505050565b60008373ffffffffffffffffffffffffffffffffffffffff163b1115611ae4578273ffffffffffffffffffffffffffffffffffffffff1663150b7a026119776113ec565b8685856040518563ffffffff1660e01b81526004016119999493929190613370565b6020604051808303816000875af19250505080156119d557506040513d601f19601f820116820180604052508101906119d291906133d1565b60015b611a59573d8060008114611a05576040519150601f19603f3d011682016040523d82523d6000602084013e611a0a565b606091505b506000815103611a5157836040517f64a0ae92000000000000000000000000000000000000000000000000000000008152600401611a489190612ac2565b60405180910390fd5b805181602001fd5b63150b7a0260e01b7bffffffffffffffffffffffffffffffffffffffffffffffffffffffff1916817bffffffffffffffffffffffffffffffffffffffffffffffffffffffff191614611ae257836040517f64a0ae92000000000000000000000000000000000000000000000000000000008152600401611ad99190612ac2565b60405180910390fd5b505b50505050565b606060405180602001604052806000815250905090565b606060006001611b10846121dc565b01905060008167ffffffffffffffff811115611b2f57611b2e612da3565b5b6040519080825280601f01601f191660200182016040528015611b615781602001600182028036833780820191505090505b509050600082602001820190505b600115611bc4578080600190039150507f3031323334353637383961626364656600000000000000000000000000000000600a86061a8153600a8581611bb857611bb76133fe565b5b04945060008503611b6f575b819350505050919050565b611be982826040518060200160405280600081525061232f565b5050565b60007f000000000000000000000000000000000000000000000000000000000000000073ffffffffffffffffffffffffffffffffffffffff16634000aea07f000000000000000000000000000000000000000000000000000000000000000084866000604051602001611c6192919061342d565b6040516020818303038152906040526040518463ffffffff1660e01b8152600401611c8e93929190613456565b6020604051808303816000875af1158015611cad573d6000803e3d6000fd5b505050506040513d601f19601f82011682018060405250810190611cd191906134a9565b506000611cf484600030600760008981526020019081526020016000205461234b565b905060016007600086815260200190815260200160002054611d1691906134d6565b6007600086815260200190815260200160002081905550611d378482612387565b91505092915050565b60006002600083815260200190815260200160002060009054906101000a900473ffffffffffffffffffffffffffffffffffffffff169050919050565b8080611db65750600073ffffffffffffffffffffffffffffffffffffffff168273ffffffffffffffffffffffffffffffffffffffff1614155b15611eea576000611dc684611327565b9050600073ffffffffffffffffffffffffffffffffffffffff168373ffffffffffffffffffffffffffffffffffffffff1614158015611e3157508273ffffffffffffffffffffffffffffffffffffffff168173ffffffffffffffffffffffffffffffffffffffff1614155b8015611e445750611e428184610f09565b155b15611e8657826040517fa9fbf51f000000000000000000000000000000000000000000000000000000008152600401611e7d9190612ac2565b60405180910390fd5b8115611ee857838573ffffffffffffffffffffffffffffffffffffffff168273ffffffffffffffffffffffffffffffffffffffff167f8c5be1e5ebec7d5bd14f71427d1e84f3dd0314c0f7b2291e5b200ac8c7c3b92560405160405180910390a45b505b836004600085815260200190815260200160002060006101000a81548173ffffffffffffffffffffffffffffffffffffffff021916908373ffffffffffffffffffffffffffffffffffffffff16021790555050505050565b611f4d8383836123ba565b61200157600073ffffffffffffffffffffffffffffffffffffffff168373ffffffffffffffffffffffffffffffffffffffff1603611fc257806040517f7e273289000000000000000000000000000000000000000000000000000000008152600401611fb99190612aec565b60405180910390fd5b81816040517f177e802f000000000000000000000000000000000000000000000000000000008152600401611ff892919061350a565b60405180910390fd5b505050565b6001600281111561201a57612019612c02565b5b600e60009054906101000a900460ff16600281111561203c5761203b612c02565b5b1461207c576040517f08c379a00000000000000000000000000000000000000000000000000000000081526004016120739061357f565b60405180910390fd5b60016064600a5461208d919061359f565b61209791906134d6565b600b81905550600160646080600a54901c6120b2919061359f565b6120bc91906134d6565b600c8190555060016064610100600a54901c6120d8919061359f565b6120e291906134d6565b600d81905550600160116000600b54815260200190815260200160002060006101000a81548160ff021916908315150217905550600160116000600c54815260200190815260200160002060006101000a81548160ff021916908315150217905550600160116000600d54815260200190815260200160002060006101000a81548160ff021916908315150217905550600d54600c54600b547f9d53f2b115229c0fb6c01a6dcc67fcc582e8eea41b8d0318191c52190c9d3de660405160405180910390a46121af61247b565b6002600e60006101000a81548160ff021916908360028111156121d5576121d4612c02565b5b0217905550565b600080600090507a184f03e93ff9f4daa797ed6e38ed64bf6a1f010000000000000000831061223a577a184f03e93ff9f4daa797ed6e38ed64bf6a1f01000000000000000083816122305761222f6133fe565b5b0492506040810190505b6d04ee2d6d415b85acef81000000008310612277576d04ee2d6d415b85acef8100000000838161226d5761226c6133fe565b5b0492506020810190505b662386f26fc1000083106122a657662386f26fc10000838161229c5761229b6133fe565b5b0492506010810190505b6305f5e10083106122cf576305f5e10083816122c5576122c46133fe565b5b0492506008810190505b61271083106122f45761271083816122ea576122e96133fe565b5b0492506004810190505b60648310612317576064838161230d5761230c6133fe565b5b0492506002810190505b600a8310612326576001810190505b80915050919050565b6123398383612770565b6123466000848484611933565b505050565b60008484848460405160200161236494939291906135d0565b6040516020818303038152906040528051906020012060001c9050949350505050565b6000828260405160200161239c929190613657565b60405160208183030381529060405280519060200120905092915050565b60008073ffffffffffffffffffffffffffffffffffffffff168373ffffffffffffffffffffffffffffffffffffffff161415801561247257508273ffffffffffffffffffffffffffffffffffffffff168473ffffffffffffffffffffffffffffffffffffffff16148061243357506124328484610f09565b5b8061247157508273ffffffffffffffffffffffffffffffffffffffff16612459836113af565b73ffffffffffffffffffffffffffffffffffffffff16145b5b90509392505050565b60028081111561248e5761248d612c02565b5b600e60009054906101000a900460ff1660028111156124b0576124af612c02565b5b146124f0576040517f08c379a00000000000000000000000000000000000000000000000000000000081526004016124e7906136cf565b60405180910390fd5b600067016345785d8a0000606461250791906136ef565b905060006064601e8361251a91906136ef565b6125249190613731565b905060006064600a8461253791906136ef565b6125419190613731565b90506000606460058561255491906136ef565b61255e9190613731565b9050600860009054906101000a900473ffffffffffffffffffffffffffffffffffffffff1673ffffffffffffffffffffffffffffffffffffffff166108fc828486886125aa9190613762565b6125b49190613762565b6125be9190613762565b9081150290604051600060405180830381858888f193505050501580156125e9573d6000803e3d6000fd5b506000600190505b606481116127695760006010600083815260200190815260200160002060009054906101000a900473ffffffffffffffffffffffffffffffffffffffff1690506011600083815260200190815260200160002060009054906101000a900460ff161561275557600b5482036126ac578073ffffffffffffffffffffffffffffffffffffffff166108fc869081150290604051600060405180830381858888f193505050501580156126a6573d6000803e3d6000fd5b50612754565b600c548203612701578073ffffffffffffffffffffffffffffffffffffffff166108fc859081150290604051600060405180830381858888f193505050501580156126fb573d6000803e3d6000fd5b50612753565b600d548203612752578073ffffffffffffffffffffffffffffffffffffffff166108fc849081150290604051600060405180830381858888f19350505050158015612750573d6000803e3d6000fd5b505b5b5b5b50808061276190613267565b9150506125f1565b5050505050565b600073ffffffffffffffffffffffffffffffffffffffff168273ffffffffffffffffffffffffffffffffffffffff16036127e25760006040517f64a0ae920000000000000000000000000000000000000000000000000000000081526004016127d99190612ac2565b60405180910390fd5b60006127f083836000611406565b9050600073ffffffffffffffffffffffffffffffffffffffff168173ffffffffffffffffffffffffffffffffffffffff16146128645760006040517f73c6ac6e00000000000000000000000000000000000000000000000000000000815260040161285b9190612ac2565b60405180910390fd5b505050565b6000819050919050565b61287c81612869565b82525050565b60006020820190506128976000830184612873565b92915050565b6000604051905090565b600080fd5b600080fd5b60007fffffffff0000000000000000000000000000000000000000000000000000000082169050919050565b6128e6816128b1565b81146128f157600080fd5b50565b600081359050612903816128dd565b92915050565b60006020828403121561291f5761291e6128a7565b5b600061292d848285016128f4565b91505092915050565b60008115159050919050565b61294b81612936565b82525050565b60006020820190506129666000830184612942565b92915050565b600081519050919050565b600082825260208201905092915050565b60005b838110156129a657808201518184015260208101905061298b565b60008484015250505050565b6000601f19601f8301169050919050565b60006129ce8261296c565b6129d88185612977565b93506129e8818560208601612988565b6129f1816129b2565b840191505092915050565b60006020820190508181036000830152612a1681846129c3565b905092915050565b6000819050919050565b612a3181612a1e565b8114612a3c57600080fd5b50565b600081359050612a4e81612a28565b92915050565b600060208284031215612a6a57612a696128a7565b5b6000612a7884828501612a3f565b91505092915050565b600073ffffffffffffffffffffffffffffffffffffffff82169050919050565b6000612aac82612a81565b9050919050565b612abc81612aa1565b82525050565b6000602082019050612ad76000830184612ab3565b92915050565b612ae681612a1e565b82525050565b6000602082019050612b016000830184612add565b92915050565b612b1081612aa1565b8114612b1b57600080fd5b50565b600081359050612b2d81612b07565b92915050565b60008060408385031215612b4a57612b496128a7565b5b6000612b5885828601612b1e565b9250506020612b6985828601612a3f565b9150509250929050565b600080600060608486031215612b8c57612b8b6128a7565b5b6000612b9a86828701612b1e565b9350506020612bab86828701612b1e565b9250506040612bbc86828701612a3f565b9150509250925092565b6000612bd182612a81565b9050919050565b612be181612bc6565b82525050565b6000602082019050612bfc6000830184612bd8565b92915050565b7f4e487b7100000000000000000000000000000000000000000000000000000000600052602160045260246000fd5b60038110612c4257612c41612c02565b5b50565b6000819050612c5382612c31565b919050565b6000612c6382612c45565b9050919050565b612c7381612c58565b82525050565b6000602082019050612c8e6000830184612c6a565b92915050565b600060208284031215612caa57612ca96128a7565b5b6000612cb884828501612b1e565b91505092915050565b612cca81612869565b8114612cd557600080fd5b50565b600081359050612ce781612cc1565b92915050565b60008060408385031215612d0457612d036128a7565b5b6000612d1285828601612cd8565b9250506020612d2385828601612a3f565b9150509250929050565b612d3681612936565b8114612d4157600080fd5b50565b600081359050612d5381612d2d565b92915050565b60008060408385031215612d7057612d6f6128a7565b5b6000612d7e85828601612b1e565b9250506020612d8f85828601612d44565b9150509250929050565b600080fd5b600080fd5b7f4e487b7100000000000000000000000000000000000000000000000000000000600052604160045260246000fd5b612ddb826129b2565b810181811067ffffffffffffffff82111715612dfa57612df9612da3565b5b80604052505050565b6000612e0d61289d565b9050612e198282612dd2565b919050565b600067ffffffffffffffff821115612e3957612e38612da3565b5b612e42826129b2565b9050602081019050919050565b82818337600083830152505050565b6000612e71612e6c84612e1e565b612e03565b905082815260208101848484011115612e8d57612e8c612d9e565b5b612e98848285612e4f565b509392505050565b600082601f830112612eb557612eb4612d99565b5b8135612ec5848260208601612e5e565b91505092915050565b60008060008060808587031215612ee857612ee76128a7565b5b6000612ef687828801612b1e565b9450506020612f0787828801612b1e565b9350506040612f1887828801612a3f565b925050606085013567ffffffffffffffff811115612f3957612f386128ac565b5b612f4587828801612ea0565b91505092959194509250565b60008060408385031215612f6857612f676128a7565b5b6000612f7685828601612b1e565b9250506020612f8785828601612b1e565b9150509250929050565b7f4e487b7100000000000000000000000000000000000000000000000000000000600052602260045260246000fd5b60006002820490506001821680612fd857607f821691505b602082108103612feb57612fea612f91565b5b50919050565b60006060820190506130066000830186612ab3565b6130136020830185612add565b6130206040830184612ab3565b949350505050565b7f4f6e6c7920565246436f6f7264696e61746f722063616e2066756c66696c6c00600082015250565b600061305e601f83612977565b915061306982613028565b602082019050919050565b6000602082019050818103600083015261308d81613051565b9050919050565b600081905092915050565b60006130aa8261296c565b6130b48185613094565b93506130c4818560208601612988565b80840191505092915050565b60006130dc828561309f565b91506130e8828461309f565b91508190509392505050565b7f4c6f7474657279206973206e6f74206f70656e00000000000000000000000000600082015250565b600061312a601383612977565b9150613135826130f4565b602082019050919050565b600060208201905081810360008301526131598161311d565b9050919050565b7f416c6c207469636b65747320736f6c64206f7574000000000000000000000000600082015250565b6000613196601483612977565b91506131a182613160565b602082019050919050565b600060208201905081810360008301526131c581613189565b9050919050565b7f496e73756666696369656e74207061796d656e74000000000000000000000000600082015250565b6000613202601483612977565b915061320d826131cc565b602082019050919050565b60006020820190508181036000830152613231816131f5565b9050919050565b7f4e487b7100000000000000000000000000000000000000000000000000000000600052601160045260246000fd5b600061327282612a1e565b91507fffffffffffffffffffffffffffffffffffffffffffffffffffffffffffffffff82036132a4576132a3613238565b5b600182019050919050565b7f496e76616c696420726571756573742049440000000000000000000000000000600082015250565b60006132e5601283612977565b91506132f0826132af565b602082019050919050565b60006020820190508181036000830152613314816132d8565b9050919050565b600081519050919050565b600082825260208201905092915050565b60006133428261331b565b61334c8185613326565b935061335c818560208601612988565b613365816129b2565b840191505092915050565b60006080820190506133856000830187612ab3565b6133926020830186612ab3565b61339f6040830185612add565b81810360608301526133b18184613337565b905095945050505050565b6000815190506133cb816128dd565b92915050565b6000602082840312156133e7576133e66128a7565b5b60006133f5848285016133bc565b91505092915050565b7f4e487b7100000000000000000000000000000000000000000000000000000000600052601260045260246000fd5b60006040820190506134426000830185612873565b61344f6020830184612add565b9392505050565b600060608201905061346b6000830186612ab3565b6134786020830185612add565b818103604083015261348a8184613337565b9050949350505050565b6000815190506134a381612d2d565b92915050565b6000602082840312156134bf576134be6128a7565b5b60006134cd84828501613494565b91505092915050565b60006134e182612a1e565b91506134ec83612a1e565b925082820190508082111561350457613503613238565b5b92915050565b600060408201905061351f6000830185612ab3565b61352c6020830184612add565b9392505050565b7f4c6f7474657279206973206e6f7420636c6f7365640000000000000000000000600082015250565b6000613569601583612977565b915061357482613533565b602082019050919050565b600060208201905081810360008301526135988161355c565b9050919050565b60006135aa82612a1e565b91506135b583612a1e565b9250826135c5576135c46133fe565b5b828206905092915050565b60006080820190506135e56000830187612873565b6135f26020830186612add565b6135ff6040830185612ab3565b61360c6060830184612add565b95945050505050565b6000819050919050565b61363061362b82612869565b613615565b82525050565b6000819050919050565b61365161364c82612a1e565b613636565b82525050565b6000613663828561361f565b6020820191506136738284613640565b6020820191508190509392505050565b7f4c6f7474657279206973206e6f742066696e6973686564000000000000000000600082015250565b60006136b9601783612977565b91506136c482613683565b602082019050919050565b600060208201905081810360008301526136e8816136ac565b9050919050565b60006136fa82612a1e565b915061370583612a1e565b925082820261371381612a1e565b9150828204841483151761372a57613729613238565b5b5092915050565b600061373c82612a1e565b915061374783612a1e565b925082613757576137566133fe565b5b828204905092915050565b600061376d82612a1e565b915061377883612a1e565b92508282039050818111156137905761378f613238565b5b9291505056fea2646970667358221220e53e2e342ec42fafacc7c67d899b017b503fb3242c8e50e32385b20a988ef57f64736f6c63430008180033",
  "linkReferences": {},
  "deployedLinkReferences": {}
}